{
    "_format": "hh-sol-artifact-1",
    "contractName": "WaitlistPortal",
    "sourceName": "contracts/WaitlistPortal.sol",
    "abi": [
        {
            "inputs": [],
            "stateMutability": "payable",
            "type": "constructor"
        },
        {
            "anonymous": false,
            "inputs": [
                {
                    "indexed": true,
                    "internalType": "address",
                    "name": "from",
                    "type": "address"
                },
                {
                    "indexed": false,
                    "internalType": "uint256",
                    "name": "timestamp",
                    "type": "uint256"
                },
                {
                    "indexed": false,
                    "internalType": "string",
                    "name": "waitlist",
                    "type": "string"
                },
                {
                    "indexed": false,
                    "internalType": "string",
                    "name": "walletaddress",
                    "type": "string"
                }
            ],
            "name": "NewWaitlist",
            "type": "event"
        },
        {
            "inputs": [
                {
                    "internalType": "string",
                    "name": "_waitlistevent",
                    "type": "string"
                },
                {
                    "internalType": "string",
                    "name": "_walletaddress",
                    "type": "string"
                },
                {
                    "internalType": "uint256",
                    "name": "_payAmount",
                    "type": "uint256"
                }
            ],
            "name": "bookWaitlist",
            "outputs": [],
            "stateMutability": "payable",
            "type": "function"
        },
        {
            "inputs": [],
            "name": "getAllWaitlists",
            "outputs": [
                {
                    "components": [
                        {
                            "internalType": "address",
                            "name": "giver",
                            "type": "address"
                        },
                        {
                            "internalType": "string",
                            "name": "waitlist",
                            "type": "string"
                        },
                        {
                            "internalType": "string",
                            "name": "walletaddress",
                            "type": "string"
                        },
                        {
                            "internalType": "uint256",
                            "name": "timestamp",
                            "type": "uint256"
                        }
                    ],
                    "internalType": "struct WaitlistPortal.Waitlist[]",
                    "name": "",
                    "type": "tuple[]"
                }
            ],
            "stateMutability": "view",
            "type": "function"
        },
        {
            "inputs": [],
            "name": "getTotalWaitlist",
            "outputs": [
                {
                    "internalType": "uint256",
                    "name": "",
                    "type": "uint256"
                }
            ],
            "stateMutability": "view",
            "type": "function"
        },
        {
            "inputs": [],
            "name": "owner",
            "outputs": [
                {
                    "internalType": "address payable",
                    "name": "",
                    "type": "address"
                }
            ],
            "stateMutability": "view",
            "type": "function"
        }
    ],
    "bytecode": "0x60c0604052601f60809081527f43797068657270756e6b203230323220536d61727420436f6e7472616374210060a0526100439061005a602090811b61050617901c565b600180546001600160a01b03191633179055610118565b6100a18160405160240161006e91906100c5565b60408051601f198184030181529190526020810180516001600160e01b0390811663104c13eb60e21b179091526100a416565b50565b80516a636f6e736f6c652e6c6f67602083016000808483855afa5050505050565b6000602080835283518082850152825b818110156100f1578581018301518582016040015282016100d5565b818111156101025783604083870101525b50601f01601f1916929092016040019392505050565b610a0b806101276000396000f3fe60806040526004361061003f5760003560e01c806366bfd576146100445780638da5cb5b1461006c5780639d374b0a146100a4578063cdf9e9f3146100b9575b600080fd5b34801561005057600080fd5b506100596100db565b6040519081526020015b60405180910390f35b34801561007857600080fd5b5060015461008c906001600160a01b031681565b6040516001600160a01b039091168152602001610063565b6100b76100b2366004610717565b610108565b005b3480156100c557600080fd5b506100ce610363565b60405161006391906107cc565b60006101016040518060600160405280602581526020016109836025913960005461054c565b5060005490565b66038d7ea4c68000808211156101655760405162461bcd60e51b815260206004820152601b60248201527f496e73756666696369656e742045746865722070726f7669646564000000000060448201526064015b60405180910390fd5b6001600080828254610177919061090d565b925050819055506101a06040518060600160405280602e81526020016109a8602e913933610595565b6040805160808101825233815260208082018781529282018690524260608301526002805460018101825560009190915282517f405787fa12a823e0f2b7631cc41b3ba8828b3321ca811111fa75cd3aa3bb5ace600490920291820180546001600160a01b0319166001600160a01b0390921691909117815593518051939493610253937f405787fa12a823e0f2b7631cc41b3ba8828b3321ca811111fa75cd3aa3bb5acf9093019291909101906105f7565b506040820151805161026f9160028401916020909101906105f7565b50606091909101516003909101556001546040516000916001600160a01b03169084908381818185875af1925050503d80600081146102ca576040519150601f19603f3d011682016040523d82523d6000602084013e6102cf565b606091505b50509050806103175760405162461bcd60e51b81526020600482015260146024820152734661696c656420746f2073656e64206d6f6e657960601b604482015260640161015c565b336001600160a01b03167f0890fe1e2d1096cb3890f8c79a73c1a7236d7002cc8c61e9e29937f3b64e417b428787604051610354939291906108d8565b60405180910390a25050505050565b60606002805480602002602001604051908101604052809291908181526020016000905b828210156104fd57600084815260209081902060408051608081019091526004850290910180546001600160a01b0316825260018101805492939192918401916103d090610931565b80601f01602080910402602001604051908101604052809291908181526020018280546103fc90610931565b80156104495780601f1061041e57610100808354040283529160200191610449565b820191906000526020600020905b81548152906001019060200180831161042c57829003601f168201915b5050505050815260200160028201805461046290610931565b80601f016020809104026020016040519081016040528092919081815260200182805461048e90610931565b80156104db5780601f106104b0576101008083540402835291602001916104db565b820191906000526020600020905b8154815290600101906020018083116104be57829003601f168201915b5050505050815260200160038201548152505081526020019060010190610387565b50505050905090565b6105498160405160240161051a9190610872565b60408051601f198184030181529190526020810180516001600160e01b031663104c13eb60e21b1790526105d6565b50565b61059182826040516024016105629291906108b6565b60408051601f198184030181529190526020810180516001600160e01b03166309710a9d60e41b1790526105d6565b5050565b61059182826040516024016105ab92919061088c565b60408051601f198184030181529190526020810180516001600160e01b031663319af33360e01b1790525b80516a636f6e736f6c652e6c6f67602083016000808483855afa5050505050565b82805461060390610931565b90600052602060002090601f016020900481019282610625576000855561066b565b82601f1061063e57805160ff191683800117855561066b565b8280016001018555821561066b579182015b8281111561066b578251825591602001919060010190610650565b5061067792915061067b565b5090565b5b80821115610677576000815560010161067c565b600082601f8301126106a0578081fd5b813567ffffffffffffffff808211156106bb576106bb61096c565b604051601f8301601f19908116603f011681019082821181831017156106e3576106e361096c565b816040528381528660208588010111156106fb578485fd5b8360208701602083013792830160200193909352509392505050565b60008060006060848603121561072b578283fd5b833567ffffffffffffffff80821115610742578485fd5b61074e87838801610690565b94506020860135915080821115610763578384fd5b5061077086828701610690565b925050604084013590509250925092565b60008151808452815b818110156107a65760208185018101518683018201520161078a565b818111156107b75782602083870101525b50601f01601f19169290920160200192915050565b60006020808301818452808551808352604092508286019150828160051b870101848801865b8381101561086457888303603f19018552815180516001600160a01b031684528781015160808986018190529061082b82870182610781565b91505087820151858203898701526108438282610781565b606093840151969093019590955250948701949250908601906001016107f2565b509098975050505050505050565b6020815260006108856020830184610781565b9392505050565b60408152600061089f6040830185610781565b905060018060a01b03831660208301529392505050565b6040815260006108c96040830185610781565b90508260208301529392505050565b8381526060602082015260006108f16060830185610781565b82810360408401526109038185610781565b9695505050505050565b6000821982111561092c57634e487b7160e01b81526011600452602481fd5b500190565b600181811c9082168061094557607f821691505b6020821081141561096657634e487b7160e01b600052602260045260246000fd5b50919050565b634e487b7160e01b600052604160045260246000fdfe5765206861766520256420746f74616c2077616974206c6973747320726563696576656420257320686173206a7573742073617665642074686569722073706f74206f6e207468652077616974206c69737421a26469706673582212207bafec30b71ca2d2bb88cd927a784f7540a249b5a4e9020b170f1f2512e4cdc464736f6c63430008040033",
    "linkReferences": {},
    "deployedLinkReferences": {}
}